S01C00002E2F62696E2F626C696E6B795F6578616D706C652E737265636F
S113000000400020410600003D0600003D060000BF
S11300103D0600003D0600003D0600000000000013
S11300200000000000000000000000003D06000089
S11300303D060000000000003D0600003D060000F3
S11300403D0600003D0600003D0600003D060000A0
S11300503D0600003D0600006D0500003D05000062
S11300603D06000049030000510300003D06000066
S11300703D0600003D0600003D0600003D06000070
S11300803D0600003D0600003D0600003D06000060
S11300903D0600003D0600003D0600003D06000050
S11300A03D0600003D0600003D0600003D06000040
S11300B03D0600003D0600003D0600003D06000030
S11300C03D0600003D0600003D0600003D06000020
S11300D03D0600003D0600003D0600003D06000010
S11300E03D060000790400003D06000035040000D0
S11300F03D0600003D0600003D0600000000000033
S113010000000000000000000000000000000000EB
S113011000000000000000000000000000000000DB
S11301203D0600003D0600003D0600003D060000BF
S11301303D0600003D0600003D0600003D060000AF
S113014000000000000000003D0600003D06000025
S11301503D0600003D060000000000003D060000D2
S1130180FFFFFFFFFFFFFFFFFFFFFFFFFFFFFFFF7B
S113019003329CA7FD000000FFFFFFFFFFFFFFFFEE
S11301C010B5054C237833B9044B13B10448AFF38D
S11301D000800123237010BDD40904200000000016
S11301E02486000008B5034B1BB103490348AFF351
S11301F0008008BD00000000D80904202486000007
S1130200154B002B08BF134B9D46A3F5803A0021E4
S11302108B460F461348144A121A00F0EDFB0F4B9D
S1130220002B00D098470E4B002B00D0984700209D
S1130230002104000D000D48002802D00C4803F0F2
S1130240A7FF00F0B5FB2000290000F075FA00F0CC
S11302509FFB00BF000008000040002000000000D9
S113026000000000D4090420FC0A0420914100008D
S11302705D5300002DE9F041114D2E6982B00F4607
S113028006EBC006002455F8040BD6F80080092FAD
S11302900CBF038D838D028E9BB2134021460DF15A
S11302A006020134ADF806300386B8F1000F02D01F
S11302B00BB17068C047042CE5D102B0BDE8F081F1
S11302C0000004200A4A13690BB100207047094951
S11302D010B410614FF400744FF48062C0E900332D
S11302E0C0E902330C6000200A605DF8044B7047DB
S11302F00000042000E100E00A4B53F82030EFF343
S1130300108072B63AB99A8822EA0101998080F382
S11303101088002070479A881143998080F31088D0
S11303200020704700000420024B53F820300020C6
S11303301983704700000420024B53F8203000203A
S1130340998370470000042009210020FFF792BF21
S11303500A210120FFF78EBF38B51D491D4B1E4CE5
S11303604CF614320020DA601C610860DA601A6905
S113037042F002021A611A699205FCD5174A184D17
S113038014681848184924F0030414600024146005
S1130390556046F61A059460D5605F2555614CF6A4
S11303A01432046084604464DA601A6922F008023A
S11303B01A6180204FF400724FF4006340250D60F1
S11303C008604A604B6000F057F9204638BD00BF12
S11303D0F409042000C1044002C0010000C3044029
S11303E00404100000C0044000E100E0012810B53E
S11303F018D013D302280FD10C4C0904EFF310804A
S113040072B60B4A536823401943516080F3108835
S113041000F032F9002010BD042010BD09026FF471
S11304207C54EBE76FF03F04E8E700BFFFFF00FEFA
S113043000C3044038B50D4A0D4B14689B6903F0A2
S113044006053CB113F0040207D00A4B00221868D9
S11304500F21A047064B9D6138BD9B07FAD5054B7C
S11304600E211868A047024B9D6138BDF409042091
S113047000C30440F00904202DE9F0412A4B2B4A23
S11304802B4F92692B4C1E693B6802F4CC453440D7
S1130490F3B155B1570428D50B21274A106800221F
S11304A09847224B9D61BDE8F081002CFBD024DAF3
S11304B0DFF8848007212A46D8F800009847B10461
S11304C00AD53B68D8F800002A460621984703E07D
S11304D0002DE6D1002CE6D0134B4CF61432DA6032
S11304E01A6914431C61BDE8F081960417D494057D
S11304F017D45005D5D50D21CFE77200ECD5DFF820
S113050038802A46D8F80000082198477302E3D5BA
S11305103B68D8F800002A4609219847DCE70A21FD
S1130520BBE70C21B9E700BF00C1044000C304408D
S1130530F4090420002040C0F009042008B5084B49
S11305405968CB070BD5074B1B681BB1064A1068CB
S113055000229847024A536843F00103536008BDE0
S113056000C00440F4090420F009042038B50D4DFE
S11305700D4A2B68546873B1620704D50B490022F5
S1130580086811469847A30705D5084A2B681068E0
S1130590012100229847044B5A6804F006041443CE
S11305A05C6038BDF409042000C00440F009042054
S11305B0704700BF00B5064B93E8070085B001AB58
S11305C083E80700184600F061FA05B05DF804FB03
S11305D00482000030B50D4B0D4D044693E807002E
S11305E085B001AB03C329681A7001A80B0CADF8E0
S11305F000108DF8023000F049FA204600F046FA67
S1130600684600F043FA05B030BD00BFF481000035
S11306100082000000B5084B83B01B68ADF80430BD
S11306201B0C8DF8063000F031FA01A800F02EFA08
S113063003B05DF804FB00BF00820000FEE700BFCA
S113064008B500F053F8094B094A93420CD2181D1F
S11306500332121A22F003020649024451F8040B31
S113066043F8040B9342F9D1FFF7CAFD00000420BC
S1130670D40904203086000017490B6803F00303F3
S1130680022B0ED0032B05D0144A154B1360154AC8
S113069013607047144B114A1B681360114A1360AE
S11306A070470B68CA68C8680D4B30B4CC68C96819
S11306B00A4DC4F3004402F01F02A34002FB03F3FB
S11306C0C1F30021074AC0F3C320B3FBF0F3CB40CE
S11306D02B60136030BC704700C30440000A042040
S11306E080BA8C01F8090420FC0904200F4A44F65E
S11306F05903D360536943F4407343F003035361D4
S1130700EFF3108172B60A4B0A4A9A604FF4E02262
S11307105A62D3F8882042F47002C3F88820BFF3E9
S11307206F8FBFF34F8F81F31088704700C0044070
S113073000ED00E0000000002DE9F047002486B041
S1130740CDE90244CDE90444FFF732FFFFF704FE8C
S11307500546A0B14C237D4A7D497E4800F0AAF9A4
S11307607C48FFF737FF7C4A2B467C49794800F0E8
S1130770A1F97848FFF74EFF002000F009F90121A4
S11307800846FFF733FE044658B14F236F4A7049B9
S1130790704800F08FF96F48FFF71CFF2346704A3A
S11307A0E3E70121FFF722FE054688B902A81021DC
S11307B0FFF788FD0446B8B15623644A6449654886
S11307C000F078F96348FFF705FF2346654ACCE754
S11307D052235E4A5E495F4800F06CF95D48FFF7BA
S11307E0F9FE2B46604AC0E7604E012271883078DA
S11307F0FFF782FD8046002834D15D4F01227988BD
S11308003878FFF779FD0546002875D1594C8046A4
S1130810CDF80480019BA34205D8019B01330193C9
S1130820019BA342F9D905F00303022B30787188A8
S11308304AD0032B3AD0012B20D0FFF77DFD81460F
S1130840002865D179883878FFF776FD824600283C
S113085078D101352C2DDBD1FFF7ACFE002006B09A
S1130860BDE8F0875A23394A39493A4800F022F959
S11308703848FFF7AFFE43463F4A76E7FFF75CFD93
S11308808146002850D179883878FFF74DFD82469B
S11308900028DED07E232D4A2D492E4800F00AF987
S11308A02C48FFF797FE5346344A5EE7FFF73CFDBA
S11308B0814600283AD179883878FFF735FD824699
S11308C00028C6D06E23E6E7FFF72EFD81460028F8
S11308D03AD179883878FFF72FFD82460028B8D0BE
S11308E076231A4A1A491B4800F0E4F81948FFF71E
S11308F071FE5346224A38E75E23144A14491548C8
S113090000F0D8F81348FFF765FE2B461D4A2CE784
S113091083230E4A0E490F4800F0CCF80D48FFF728
S113092059FE4B46184A20E77B23F2E76B23074A1C
S11309300749084800F0BEF80648FFF74BFE4B464F
S1130940124A12E78623CCE77323F0E710820000F3
S1130950288200003C0A0420308200004882000003
S113096068820000B8820000908200001800042011
S1130970140004203F420F00D0820000388300009E
S113098050830000F8820000688300002083000088
S113099008B50021044603F087FB044B1868C36BB9
S11309A003B19847204607F017FC00BF808300007E
S11309B070B50D4E0D4D761BB61006D000240134D3
S11309C055F8043B9847A642F9D1094E094D761BC8
S11309D007F004FCB61006D00024013455F8043B9B
S11309E09847A642F9D170BDC8090420C80904205B
S11309F0D0090420C8090420F0B4860743D0541E4B
S1130A00002A3ED0CAB2034602E014F1FF3438D3C0
S1130A1003F8012B9D07F8D1032C2BD9CDB245EA5D
S1130A2005250F2C45EA054516D9A4F110073F0901
S1130A3003F1200606EB071603F1100242E9045500
S1130A4042E902551032B242F8D104F00F040137E2
S1130A50032C03EB07130DD91E462246043A032A3E
S1130A6046F8045BFAD8221F22F00302043213442E
S1130A7004F003042CB1C9B21C4403F8011B9C42CA
S1130A80FBD1F0BC704714460346C5E70FB400B56C
S1130A90074983B004AB086853F8042B81680193B9
S1130AA001F012FD03B05DF804EB04B0704700BF21
S1130AB01C0004200EB430B59CB01FAB0C4C0D4D83
S1130AC053F8042B0193014602910691206802A970
S1130AD06FF000440794CDE9044500F00DF8029B43
S1130AE000221A701CB0BDE8304003B0704700BF4C
S1130AF01C0004200802FFFF2DE9F04FD7B00C467C
S1130B00069193460993039004F0B0FD036817938C
S1130B10184605F075FDA38916901F0603D52369B1
S1130B20002B00F0558700235E469FED8F7B1093CA
S1130B30CDE92B331593CDE919331B931893059302
S1130B402DAB2A93994633788DED127B002B00F060
S1130B50CE82252B344602D11CE0252B03D014F879
S1130B60013F002BF9D1A51B85B1DDE92B320133FF
S1130B702A44072BC9F80060C9F80450CDE92B3288
S1130B807CDC09F10809059B2B4405932378002B91
S1130B9000F0AD8200236778079398468DF88B3078
S1130BA004F1010B4FF0FF3A2B250BF1010BA7F1D8
S1130BB020035A2B00F2E483DFE813F0A503E203D9
S1130BC0E203A003E203E203E2038103E203E2039C
S1130BD0B503B003E20372015801E2033B03C6000C
S1130BE0C600C600C600C600C600C600C600C600D1
S1130BF0E203E203E203E203E203E203E20340036B
S1130C00E2037701F002400340034003E203E203FE
S1130C10E203E203EB02E203E2038400E203E20301
S1130C20E203C202E203CE03E203E203AC02E20304
S1130C30E203E203E203E203E203E203E20340032A
S1130C40E2037701DA00400340034003C103DA0002
S1130C505B00E2031E03E203060386002B035B0032
S1130C60E203C2025D002901E203E2033801E20368
S1130C705D0048F020089BF8007096E72AAA0699C0
S1130C80039805F05DFD80B90DF1B4097BE72AAA4C
S1130C905946504605F054FD002801F0C5800A9BD2
S1130CA01BB10A99039804F0C3FB069B9B8913F0BC
S1130CB0400F059B18BF4FF0FF330593059857B0BD
S1130CC0BDE8F08F48F0100818F0200F00F073858D
S1130CD0099C073424F00703D3E9004503F1080213
S1130CE0099228F48063002200218DF88B10BAF158
S1130CF0FF3F56A9049100F0A78454EA050123F0AC
S1130D0080085BD1BAF1000F40F09687002A40F0CA
S1130D101F8513F0010356AE089302D0302306F862
S1130D20013D00230A930F9314931193089B9DF89C
S1130D308B205345B8BF53460493002A00F0C88063
S1130D40049B01330493C3E0A7F1300300221BF892
S1130D50017B02EB820203EB4202A7F13003092B71
S1130D60F5D9079223E700BF00000000000000004F
S1130D7043469E0640F11782099C073424F0070479
S1130D80D4E9000104F10802099204460D46002842
S1130D9071F1000205DA2D22644265EB45058DF8F8
S1130DA08B2056AABAF1FF3F049200F0E38654EA7E
S1130DB005014FF0010223F08008A3D0012A00F0BE
S1130DC04784022A00F0EF8256A900E03146E20887
S1130DD042EA4572E80804F0070305461446303336
S1130DE054EA050201F8013C01F1FF36EED118F096
S1130DF0010F00F0E882302B00F0E582049A0239FA
S1130E003023521A06F8013C08920E4689E74346FD
S1130E109E0640F1A682099C073424F0070202F1E1
S1130E200801D2E90045099101225DE7B64B15930B
S1130E3018F0200F00F07481099C073424F0070394
S1130E40D3E9004503F10802099218F0010F09D013
S1130E5054EA050306D030238DF88D7048F002085B
S1130E608DF88C3028F4806302223DE79BF80070F3
S1130E702A2F0BF1010201F0EB82A7F13003092BB9
S1130E8093464FF0000A3FF692AE1BF8017B0AEB43
S1130E908A0A03EB4A0AA7F13003092BF5D986E63F
S1130EA09BF8007048F004087FE609980023016865
S1130EB08DF88B301A468DF8F4100123011DCDE90D
S1130EC0083104930A9292460F92149211923DAE05
S1130ED018F002030B9302D0049B0233049318F01E
S1130EE084032C9C0E933FD1079B04995D1A002D1B
S1130EF03ADD102D2B9A29DD49462046B1461023B0
S1130F002097039C069E04E0103D102D01F108017A
S1130F1018DD01327D4F1030072ACDE92B20C1E9BD
S1130F200073F1DD2AAA314620460C9305F008FC33
S1130F3000287FF4B4AE103D102DDDE92B202DA93F
S1130F400C9BE6DC209F4E460446894601326F4BDB
S1130F502C44072ACDE92B24C9E9003500F37C850C
S1130F609DF88B2009F1080972B12B9A01320134E2
S1130F700DF18B000121072ACDE92B24C9E90001D9
S1130F8000F3738309F108090B9B6BB12B9B0133AD
S1130F90023423A90222072BCDE92B34C9E900121C
S1130FA000F36F8309F108090E9B802B00F079820E
S1130FB0089BAAEB0305002D35DD102D2B9A544B0D
S1130FC026DD49462046B1464FF0100A069E1C46CF
S1130FD004E0103D102D01F1080115DD013210303F
S1130FE0072ACDE92B20C1E9004AF2DD2AAA3146BD
S1130FF0039805F0A5FB00287FF451AE103D102D99
S1131000DDE92B202DA9E9DC4E462346894604461A
S113101001322C44072ACDE92B24C9E9003500F319
S11310203C8309F1080918F4807F40F0DB812B9B95
S1131030089AC9F8006001331444072B2C94C9F8AA
S113104004202B9300F3A18209F1080918F0040F7E
S113105033D0079B049A9D1A002D2EDD102D2B9B57
S113106021DD1026039FDDF8188004E0103D102DCB
S113107009F1080917DD0133244A1034072BCDE99F
S11310802B34C9E90026F1DD2AAA4146384605F089
S113109057FB00287FF403AE103D102DDDE92B34FF
S11310A00DF1B409E7DC0133184A2C44072BCDE9D0
S11310B02B34C9E9002500F3A583059B079A0499FD
S11310C08A42ACBF9B185B180593002C40F0258224
S11310D000232B930A9B1BB10A99039804F0A8F9E7
S11310E00DF1B4095E463378002B7FF432AD2C9BAE
S11310F0002B3FF4DAAD069C03982AAA214605F09A
S11311001FFBA389D3E500BF94830000C8830000BC
S1131110D8830000AE4B159318F0200F7FF48CAEEB
S1131120099A18F0100F02F1040340F0798318F0C3
S1131130400F099A00F0708314880993002584E60F
S1131140099B1E6800258DF88B501C1D002E00F095
S11311507384BAF1FF3F00F05F8652462946304659
S113116004F0B6FD0A90002800F09A870A9B9B1BA6
S11311700893AA4623EAE37309940493CDF828A0BC
S1131180CDF83CA0CDF850A0CDF844A09DF88B201C
S1131190D3E548F008089BF8007006E548F0100312
S11311A09E063FF5E9AD0999DD0601F1040200F15F
S11311B051835C06099940F14A83B1F900400992D0
S11311C0E51720462946E2E5099A18F0200F52F85F
S11311D0043B099240F0458318F0100F40F07C85E1
S11311E018F0400F40F02E8618F4007F00F074854C
S11311F0059A1A705E4676E79BF800706C2F03BF61
S11312009BF8017048F020080BF1010B48F010081E
S1131210CBE409996F4B0C68159347F630020431FF
S1131220ADF88C2048F002030991002502227827AA
S11312305AE548F080089BF80070B6E4099C07342E
S113124024F0070494ED007B52EC171B22F00043BA
S11312501D938DED1C7A0834DDE91C014FF0FF323B
S11312605D4B09948DED127B06F0BAFD002840F029
S1131270FF824FF0FF32584BDDE91C0106F092FD6E
S1131280002840F0F58200220023DDE9120106F077
S11312907FFD002840F0E3869DF88B204F4E504B95
S11312A00020032104910A9028F08008472FD8BF1A
S11312B01E46089182460F90149011903DE5039FBD
S11312C0384604F0D3F943681893184605F098F9A2
S11312D01B900446384604F0C9F983681A93002C1D
S11312E03FF4C9AC9BF80070002B3FF45EAC1B7854
S11312F0002B3FF45AAC48F4806856E448F00108E7
S11313009BF8007051E49DF88B309BF80070002B23
S11313107FF44BAC20238DF88B3046E48DF88B5052
S11313209BF8007041E4099B9BF800701A680792CF
S1131330002A03F10403C0F25A83099335E49BF8AD
S11313400070682F03BF9BF8017048F400780BF11C
S1131350010B48F0400828E448F010039E063FF5CE
S11313605AAD099ADD0602F1040100F161825C06BE
S1131370099A40F15A821488099100250122B3E4A4
S1131380002F3FF4B4AE002301211A4604918DF8D6
S1131390F4708DF88B300A939A460F93149311933B
S11313A008913DAE94E5159856AE230904F00F015B
S11313B043EA05732A091C461546435C06F8013DB9
S11313C054EA0503F1D1049B9B1B0893A9E400BFD5
S11313D0A883000094830000FFFFEF7F8883000050
S11313E084830000652F40F3DC8000220023DDE9C4
S11313F0120106F0C3FC002800F060812B9BAD4A6B
S1131400C9F80020013301340122072BCDE92B3424
S1131410C9F8042000F33C8409F10809249B109ABC
S11314202C9C934280F2E9812B9B179AC9F80020E7
S1131430169AC9F8042001331444072BCDE92B3440
S113144000F3EE8209F10809109B5D1E002D7FF761
S1131450FDAD102D2B9A984B40F3038419461026AA
S11314602346039FDDF818A00C4605E009F108099E
S1131470103D102D40F3F28301321033072ACDE9D9
S11314802B23C9E90046F1DD2AAA5146384605F066
S113149057F900287FF403ACDDE92B230DF1B409DF
S11314A0E6E7079B049A9D1A002D7FF781AD102D66
S11314B02B9A814B25DD49462046B1461C46069EA3
S11314C004E0103D102D01F1080116DD0132103049
S11314D01023072ACDE92B200C604B60F1DD2AAAEA
S11314E03146039805F02CF900287FF4D8AB103D61
S11314F0102DDDE92B202DA9E8DC4E462346894634
S1131500044601322C44072ACDE92B24C9E90035CD
S113151000F3B18309F108094AE52AAA0699039858
S113152005F00EF900283FF4D3ADFFF7B8BB2AAAA3
S11315300699039805F004F900287FF4B0AB249BC6
S11315402C9C0DF1B4091BB9109A002A00F0928466
S11315502B9A1799C9F800101699C9F8041001328A
S11315600C44072A2C942B9200F3A78509F108094F
S1131570002BC0F22086109B01321C44072ACDE9BF
S11315802B24C9E900637FF75FAD2AAA0699039863
S113159005F0D6F800287FF482AB2C9C0DF1B40939
S11315A054E5109A2B9B012A04F1010403F101056F
S11315B009F1080740F30E810123072DC9F80060E3
S11315C0CDE92B54C9F8043000F31D83169B179AF8
S11315D0691C1C4407290B91CDE92B14C7E900238E
S11315E000F31D8308370B9A531C1D460895109D64
S11315F00E9300220023DDE9120105F1FF3A07F101
S1131600080906F0BBFB002840F0A780089DC7F836
S113161004A001365444072D3E602C942B9500F30E
S1131620EF810B9A07F1100302324F460892994654
S1131630199A7A601444089A2C9426AB072A2B92A0
S11316403B607FF703ADA0E7012A98467FF4B9AB6E
S1131650002D08BF0A2C80F0938256AE303401234B
S113166006F8014D0893FFF75CBB2AAA0699039874
S113167005F066F800287FF412AB2C9C0DF1B40938
S113168082E42AAA0699039805F05AF800287FF400
S113169006AB2C9C0DF1B40986E42AAA069903989A
S11316A005F04EF800287FF4FAAA2C9C0DF1B40939
S11316B0B9E400BFC4830000D8830000249B002B3E
S11316C040F37581DDE910239342A8BF1346002B34
S11316D01D460DDD2B9BC9F8006001332C44072BFC
S11316E02C94C9F804502B9300F3BE8409F1080923
S11316F0119B002DA8BF5B1B002B1D4640F3D4811A
S1131700102D2B9ABC4B40F3BB81184621464B4607
S11317101027B146DDF80CA0069C064604E0083309
S1131720103D102D40F3A78101321031072ACDE975
S11317302B21C3E90067F2DD2AAA2146504604F0B2
S1131740FFFF00287FF4ABAADDE92B212DABE7E7EF
S1131750CDF820A056AEFFF7E4BABAF1000F7FF738
S113176067AFBAF1100FA44B40F34E8619462246D8
S11317703B461026DDF80C90069C0E9D0F4607E0B4
S11317800833AAF1100ABAF1100F40F38D82013523
S11317901032072DCDE92B52C3E90076F0DD2AAAD9
S11317A02146484604F0CCFF00287FF478AADDE9FE
S11317B02B522DABE5E7099A18F0100F02F1040340
S11317C040D118F0400F099A38D0148809930025A5
S11317D0FFF787BA18F0010F7FF4EEAE0122072D50
S11317E0C9F80060CDE92B54C9F8042000F308813E
S11317F00233089309F110091AE718F0010F7FF476
S113180013AE23E42AAA0699039804F099FF00284A
S11318107FF445AA2C9C50E418F4007F40F00D831B
S1131820146809930025FFF710BB980500F10F8396
S11318301468099101220025FFF756BA18F4007FB5
S113184040F01383146809930025FFF74ABA9805FA
S113185000F103830C680992E51720462946FFF737
S113186096BA059A1046D117C3E900015E463AE4D8
S1131870DDE9120102460B4606F0B2FA002840F0F8
S11318809985612F00F00784412F00F0F98248F414
S1131890807327F02002BAF1FF3F0E930492139B4A
S11318A000F01F85472A00F01685002BC0F2E9835B
S11318B09DED127BCDE90A008DED1E7B662F00F0B5
S11318C0DD84462F00F06285049B0398452B0CBFF2
S11318D00AF10105554628AA25ABCDE900320221BB
S11318E024AB2A469DED1E0B02F0EAFC672F064648
S11318F040F0958518F0010F40F0F784289B40468E
S11319009B1BDDF838801093249B1193049B472B79
S113191000F07183049B462B00F007840499119B0B
S1131920FAB2412908BF0F3203F1FF3306BFD2B226
S113193001210021002B2493B8BF119B8DF898201E
S1131940BABFC3F101032D222B22092B8DF8992054
S113195000F3E584002940F06A8530228DF89A204E
S11319600DF19B0230331370531C26AA9B1A109A54
S11319701993012A1344089340F32885089B169A67
S11319801344089300230F9314931193089B20F49A
S1131990806023EAE37340F4807804930B9B002B6C
S11319A040F03C839A469DF88B20FFF7C6B92B9AEA
S11319B01249C9F80010013201340121072ACDE986
S11319C02B24C9F804103FF7B2AD09F10809BAE5B0
S11319D04021039803F0D8FE069B18601861002884
S11319E000F05385069A40235361FFF79CB8524296
S11319F007920993FFF756BAD8830000C483000006
S1131A002AAA0699039804F09BFE00287FF447A9AC
S1131A10DDE92B34013308930DF1BC092DAF07E642
S1131A202AAA0699039804F08BFE00287FF437A9AC
S1131A302C9C0DF1B40907E55346062B28BF062359
S1131A40B2460F96149611960A9632460493CDE93F
S1131A500834A44EFFF771B92AAA0699039804F032
S1131A606FFE00287FF41BA99DF88B202C9C0DF1A0
S1131A70B409FFF779BA0C4631464E4699460B46EF
S1131A8001322C44072ACDE92B24C9E9003540F35F
S1131A90D1812AAA0699039804F052FE00287FF403
S1131AA0FEA82C9C0DF1B409119B18F4806F3344EB
S1131AB09A4640F01B81249B109A934249DB18F00C
S1131AC0010F46D1109AB518A5EB0A05D31A9D4209
S1131AD0A8BF1D46002D0DDD2B9AC9F800A00132C8
S1131AE02C44072A2C94C9F804502B9200F33C830D
S1131AF009F10809002DACBF5D1B1D46002D7FF7C1
S1131B00A5AA102D2B9A784B40F3AB8019461026CA
S1131B102346039FDDF818A00C4605E009F10809E7
S1131B20103D102D40F39A8001321033072ACDE97D
S1131B302B23C9E90046F1DD2AAA5146384604F0B0
S1131B40FFFD00287FF4ABA8DDE92B230DF1B409D8
S1131B50E6E72B9A1799C9F800101699C9F80410EA
S1131B6001320C44072A2C942B9200F3B58209F11C
S1131B700809A7E7002D08BF0A2C9846FFF46DADAD
S1131B8008F480630022CDF820900A97CDF82C80C9
S1131B9056AE9146DDF868801F460AE000232046D1
S1131BA029460A2206F05AF904460D4654EA05036A
S1131BB046D00A2200232046294606F04FF9303247
S1131BC006F8012C09F10109013E002FE6D098F82E
S1131BD000309945E2D1B9F1FF0FDFD0002D08BFE5
S1131BE00A2CDBD31B9B1899F61A1A46304604F0CC
S1131BF075FD98F80130002B00F0898308F1010885
S1131C004FF00009CAE72AAA0699039804F098FD40
S1131C1000287FF444A8DDE92B542DAFD6E42AAA8A
S1131C200699039804F08CFD00287FF438A8DDE9B8
S1131C302B342DAF0B93D6E4012A7FF4C2A80CE514
S1131C40049BCDF840909B1BDDF82090CDF8688074
S1131C500A9FDDF82C800893FFF763B821461C46E1
S1131C600B4601322C44072ACDE92B24C9E900355F
S1131C707FF7EAA989E42AAA0699039804F060FD8B
S1131C8000287FF40CA82C9C0DF1B409FFF790B93F
S1131C902AAA0699039804F053FD00287EF4FFAFA6
S1131CA00DF1B409FFF7BABB14463A461F46134672
S1131CB02A460132089207F10802C7E9003A089B54
S1131CC02B935444072B2C943FF79AAE013308937B
S1131CD002F108091746ABE4059A1A605E46FFF75D
S1131CE002BA00BFBC830000D8830000109BCDF86B
S1131CF02CB0F3180893149BCDF838804A460C9600
S1131D00C24FDDF86C90DDF86880DDF818B05646F7
S1131D102146DDF80CA0002B5ED00F9B002B5FD179
S1131D20149B013B08F1FF3814932B9B1898106007
S1131D3001334944072B2C91C2F804902B9353DCB4
S1131D400832089898F80030851B9D42A8BF1D46AC
S1131D50002D0BDD2B9B166001332944072B2C919E
S1131D6055602B934BDC98F800300832002DACBF43
S1131D705D1B1D46002D2BDD102D2B981CDD102422
S1131D8004E0103D102D02F1080215DD0130103180
S1131D900728CDE92B01C2E90074F2DD2AAA5946CD
S1131DA0504604F0CDFC00287EF479AF103D102D90
S1131DB0DDE92B012DAAE9DC013029440728CDE90E
S1131DC02B01C2E900753EF762AF98F80030083283
S1131DD01E44149B002BA0D10F9B002B00F0FB8012
S1131DE00F9B013B0F93A0E72AAA5946504604F0E3
S1131DF0A7FC00287EF453AF2C992DAAA1E72AAAA8
S1131E005946504604F09CFC00287EF448AF98F8EC
S1131E1000302C992DAAA9E7304604F0F1FBAA461C
S1131E2003460890FFF7A6B998F800302C992DAA1C
S1131E301E44CEE709F1080936E614780993002513
S1131E40FFF703B8059A1A805E46FFF74CB9147879
S1131E50099100250122FEF747BF91F9004009923C
S1131E60E51720462946FEF792BF1478099300250A
S1131E70FEF737BF18F0010F3FF4E8A8FFF768BB7F
S1131E8030238DF88C305823BAF1630F8DF88D30E0
S1131E9048F0020400F3B68148F481730E9327F0EE
S1131EA0200304930022139B0A92A0463DAE002B0C
S1131EB0C0F2E8809DED127B8DED1E7B00230B9319
S1131EC0612F00F06081412F7FF4F8AC24A89DEDD0
S1131ED01E0B04F0FDFA00224FF07F5351EC100B5F
S1131EE005F0E4FC00220023CDE90C0105F046FFD7
S1131EF0002840F04382464B08930AF1FF34CDE9B1
S1131F000F9B1197CDF850A0B1462196CDF8808053
S1131F10DDF820A0DDE90C6703E005F02FFF20BB0E
S1131F20A94600223B4B3046394605F0BFFC0F461C
S1131F30064605F06BFF804605F04EFC02460B4654
S1131F403046394605F0FAFA4D461AF808C005F845
S1131F5001CBB4F1FF3FA34606460F464FF0000203
S1131F604FF0000304F1FF34D7D130463946002244
S1131F70294B119FDDF850A0CDF844904446DDF87C
S1131F803C90DDF88080CDF83CB0219EDDF840B077
S1131F90CDE90C0105F01AFF002840F0AA80DDE924
S1131FA00C0100221C4B05F0E9FE18B12346DB07A7
S1131FB000F19F800F9B002B07DB0F9B01332B4409
S1131FC0302205F8012BAB42FBD1AB1B40461093EA
S1131FD0DDF8388098E4B246109B0C9ECDF86880FA
S1131FE0F3189A459146DDF82CB0DDF838800C469C
S1131FF028BF9A465FE5119BDA1C01DB534514DDCB
S1132000023F27F02003049388E400BFD883000034
S1132010A8830000000030400000E03F2D228DF82E
S11320208B204FF0000AFEF78BBE119B10998B4258
S1132030C0F29080C20740F1A681169A1344089317
S1132040470503D5119B002B00F3EF80089B23EA7F
S1132050E3730493672700230F9314939EE42D22C4
S11320608DF88B20FFF71AB92AAA0699039804F071
S113207067FB00287EF413AE2C9C0DF1B409FFF726
S113208037BB0A90DDE9121202F100431F932D239E
S11320901E910B9314E730238DF88C307823F3E6EC
S11320A0CDF810A0CDF820A0099482460F9014908A
S11320B011909DF88B20FEF740BE2AAA069903983A
S11320C004F03EFB00287EF4EAAD249BDDE92B24DA
S11320D00DF1B409FFF74CBA2AAA0699039804F043
S11320E02FFB00287EF4DBAD249B2C9C0DF1B4095E
S11320F0E8E4119B2893089B15F8012CD97B9142A5
S11321002B4609D1302003F8010C289B5A1E289233
S113211013F8012C9142F6D0392A0BBF089A0132E8
S1132120927AD2B203F8012C4FE7119B002B40F3B3
S11321305281119BBAF1000F40F0EB80C40700F10B
S1132140E88008936627430570D4089B23EAE37369
S1132150049380E7109B169A13440893119B002B59
S113216040F348816727EEE72AAA0699039804F00A
S1132170E7FA00287EF493AD249B109A2C9CD31A82
S11321800DF1B409B6E424A89DED1E0B04F0A0F9EA
S113219000224FF07F5351EC100B05F087FB002217
S11321A00023CDE90C0105F0E9FD08B101232493D6
S11321B0BA4B0893A1E65D421033B94B80F29A8082
S11321C0194610272346DDF80CA00C4605E009F15A
S11321D00809103D102D40F38A8001321033072A7C
S11321E0CDE92B23C9E90047F1DD2AAA0699504617
S11321F004F0A6FA00287EF452ADDDE92B230DF19C
S1132200B409E6E70AF10101039803F0BDFA0646B2
S1132210002800F04F8148F481730E9327F02003C7
S11322200493A046139B0A9041E667271A9800225C
S11322300F9214920378119AFF2B0CD093420ADA6E
S11322404178D21AB1B1149B013314930B46FF2B7E
S113225000F10100F2D11192149B0F9A08991A907F
S113226013441B9A02FB0313089323EAE3730493B6
S1132270FFF794BB0F9901310F91DDE728AA25AB35
S1132280CDE90032032124AB52469DED1E0B039889
S113229002F016F85546064600EB0A043378302B54
S11322A000F0C980249D2C4400220023DDE91E0196
S11322B005F064FD10B12346FFF721BB289BA34220
S11322C0BFF41DAB30215A1C28921970289B9C42E4
S11322D0F9D8FFF714BBBAF1000F00F086800A901A
S11322E0E5E50A904FF0060AE1E57419DCE72146BA
S11322F01C460B4601322C44072ACDE92B24C9E99C
S1132300003500F3B08009F10809FFF734B99946A4
S113231044E4169A134453440893662713E70DF1D3
S1132320A70C64465F4D00E01446A5FB0312D208D7
S113233002EB8201A3EB410303F130011346092BA5
S113234004F8011C04F1FF32EEDC3033023CDBB252
S1132350A44502F8013C40F294800DF19A04114620
S113236001E011F8013B04F8013B8C45F9D12AAB9B
S11323709B1A0DF19A021344FFF7F7BA0123249331
S1132380494B0893B9E5119B089359E628AA25AB54
S1132390CDE90032032124AB52469DED1E0B039878
S11323A001F08EFF55460646462F06EB05043FF422
S11323B075AF79E7139B3D4E002BB6BF2D229DF8D8
S11323C08B208DF88B203A4BFEF76ABFC5077FF54B
S11323D0D9AAFFF7D3BABAF1000F17D1C10715D4A0
S11323E0012304930893662735E6CDF828A04FF01F
S11323F0010A5CE5089AC3F101031A4422EAE27374
S113240008920493672726E64A4656E4169B01334E
S11324105344089323EAE373049366271BE6472F88
S11324207FF463AF18F0010F3FF468AABCE70DF125
S11324309A02FFF797BA00220023DDE91E0105F096
S11324409DFC00287FF42EAFC5F1010524952AE7F1
S113245009999BF801700B6843EAE37A0B1D9346D4
S11324600993FEF7A2BB2AAA0699039804F068F917
S113247000287EF414ACDDE92B240DF1B409FFF738
S11324807AB80DF19A03FFF770BA039A0C2313601C
S11324904FF0FF330593FEF711BC00BF9483000097
S11324A0D8830000CDCCCCCCA8830000908300005E
S11324B08C830000069A938943F040039381FEF7CE
S11324C0F6BB00BF000000002DE9F04FD7B01C465A
S11324D0894617460546039003F0C8F80368169327
S11324E0184604F08DF8089415901DB1AB6B002BC1
S11324F000F00781D9F86410B9F90C20C80793B229
S113250002D4990540F11F819E040AD4D9F86410BD
S113251042F4005321F40051A9F80C30C9F86410B6
S11325209BB21D0740F1B280D9F81020002A00F0B8
S1132530AD8003F01A020A2A00F0C98000239FED3F
S1132540867B1093CDE92B331793CDE919331B9375
S1132550189305932DAB2A939B463B78CDF81C909A
S11325608DED127B002B00F05982252B3C4602D1C5
S11325701DE0252B03D014F8013F002BF9D1E51BF6
S11325808DB1DDE92B3201332A44072BCBF80070DF
S1132590CBF80450CDE92B3200F3CA800BF1080BC1
S11325A0059B2B4405932378002B00F037820023EE
S11325B06678069398468DF88B3004F1010A4FF043
S11325C0FF392B250AF1010AA6F120035A2B00F248
S11325D02A84DFE813F0AA03280428049C022804B0
S11325E028042804A70228042804C602D2022804C6
S11325F0D702DC022804F6026D026D026D026D0240
S11326006D026D026D026D026D0228042804280417
S11326102804280428042804FB0228043C03F303A8
S1132620FB02FB02FB022804280428042804EE030E
S1132630280428049A0028042804280450032804A1
S1132640790328042804900328042804280428046F
S11326502804280428042804FB0228043C03C50099
S1132660FB02FB02FB02D103C50070002804B50382
S11326702804C2039C00DE03700028045003720087
S11326802C02280428047C0228047200494603987A
S113269001F09AFCA0B1D9F86430D80704D4B9F891
S11326A00C30990540F1B7834FF0FF33059305983B
S11326B057B0BDE8F08F48F020089AF8006081E731
S11326C0B9F80C3003F01A020A2A7FF437AFB9F9CB
S11326D00E20002AFFF632AFD9F86420D20705D4C1
S11326E09B0503D4D9F8580002F0D4FF23463A4698
S11326F04946039801F026FC0590059857B0BDE8BB
S1132700F08F039802F0F2FDF4E648F0100818F098
S1132710200F00F06C83089C073424F00703D3E9EE
S1132720004503F10802089228F4806300228CE13A
S11327302AAA0799039804F0B9F8002841F076838F
S11327400DF1B40B2CE7D9F8580002F0A1FFB9F948
S11327500C2093B2D8E600BF000000000000000087
S113276043469F0640F12F83089C073424F0070456
S1132770D4E9000104F10802089204460D46002839
S113278071F1000205DA2D22644265EB45058DF8EE
S11327908B2056AAB9F1FF3F049200F0B2840122C3
S11327A054EA050123F0800840F05981B9F1000F83
S11327B040F01986002A40F0088513F0010356AF53
S11327C0099302D0302307F8013D00230A930F93A5
S11327D014931193099B9DF88B204B45B8BF4B462E
S11327E0049312B1049B0133049318F002030B9376
S11327F002D0049B0233049318F084032C9C0E93A0
S11328003FD1069B04995D1A002D3ADD102D2B9AB9
S113281029DD5946204620961023039C079EBB467B
S113282004E0103D102D01F1080118DD0132BA4F0A
S11328301030072ACDE92B20C1E90073F1DD2AAA63
S1132840314620460C9304F031F8002840F03D84D2
S1132850103D102DDDE92B202DA90C9BE6DC209EDC
S11328605F4604468B460132AB4B2C44072ACDE924
S11328702B24CBE9003500F3FF849DF88B200BF16A
S1132880080B72B12B9A013201340DF18B00012136
S1132890072ACDE92B24CBE9000100F318840BF1BE
S11328A0080B0B9B6BB12B9B0133023423A902222F
S11328B0072BCDE92B34CBE9001200F315840BF17F
S11328C0080B0E9B802B00F03183099BA9EB0305B9
S11328D0002D37DD102D2B9A904B28DD59462046CC
S11328E0BB464FF0100937461C46079E04E0103DD6
S11328F0102D01F1080115DD01321030072ACDE950
S11329002B20C1E90049F2DD2AAA3146039803F0DD
S1132910CDFF002840F0D983103D102DDDE92B2098
S11329202DA9E9DC3E4623465F4604468B46013228
S11329302C44072ACDE92B24CBE9003500F3EF839F
S11329400BF1080B18F4807F40F080822B9B099ACE
S1132950CBF8007001331444072B2C94CBF80420DB
S11329602B9300F392830BF1080B18F0040F3BD068
S1132970069B049A9D1A002D36DD102D2B9B21DD1C
S11329801026039FDDF81C8004E0103D102D0BF190
S1132990080B17DD0133604A1034072BCDE92B34C3
S11329A0CBE90026F1DD2AAA4146384603F07EFF32
S11329B0002840F06C85103D102DDDE92B340DF11D
S11329C0B40BE7DC0133544A2C44072BCDE92B34F8
S11329D0CBE9002508DD2AAA0799039803F066FFCE
S11329E0002840F0E9822C9C0499DDE905328A42F2
S11329F0ACBF9B185B180593002C40F0D5820023D4
S1132A002B930A9B1BB10A99039802F011FD0DF157
S1132A10B40B57463B78002B7FF4A7AD2C9BDDF815
S1132A201C90002B41F0E78000232B93CBE243461C
S1132A309A0640F14E81089C073424F0070202F103
S1132A400801D2E900450891012200218DF88B107C
S1132A50B9F1FF3F56A904917FF4A2AE9846012A2A
S1132A6000F05083022A00F01B8356A900E0394687
S1132A70E20842EA4572E80804F0070305461446F2
S1132A80303354EA050201F8013C01F1FF37EED17D
S1132A9018F0010F00F01483302B00F01183049A16
S1132AA002393023521A07F8013C09920F468CE68A
S1132AB0A6F1300300221AF8016B02EB820203EB49
S1132AC04202A6F13003092BF5D906927CE5144B9A
S1132AD0179318F0200F00F01481089C073424F099
S1132AE00703D3E9004503F10802089218F0010F27
S1132AF009D054EA050306D030238DF88D6048F0E0
S1132B0002088DF88C3028F4806302229DE748F097
S1132B1001089AF8006055E5E8830000F883000096
S1132B2094830000039E304602F0A0FD436818938E
S1132B30184603F065FD1B900446304602F096FDEE
S1132B4083681A93002C3FF4B8AD9AF80060002B08
S1132B503FF438AD1B78002B3FF434AD48F4806863
S1132B6030E5089B9AF800601A680692002A03F17F
S1132B700403C0F29786089324E58DF88B509AF8E5
S1132B8000601FE59AF8006048F004081AE59AF816
S1132B9000602A2E0AF1010201F0B081A6F130038F
S1132BA0092B92464FF000093FF60EAD1AF8016B5F
S1132BB009EB890903EB4909A6F13003092BF5D97F
S1132BC002E548F080089AF80060FBE4089C0734AA
S1132BD024F0070494ED007B52EC171B22F0004311
S1132BE01D938DED1C7A0834DDE91C014FF0FF3292
S1132BF0BA4B08948DED127B05F0F2F8002840F0F2
S1132C006F844FF0FF32B54BDDE91C0105F0CAF8C3
S1132C10002840F0658400220023DDE9120105F05C
S1132C20B7F8002840F05B859DF88B20AC4FAD4B86
S1132C300020032104910A9028F08008472ED8BF71
S1132C401F46099181460F9014901190C9E5089888
S1132C50002301688DF88B301A468DF8F410012397
S1132C60011D04930A9291460F9214921192CDE998
S1132C7008133DAFB9E5089B1F6800258DF88B50FC
S1132C801C1D002F00F03986B9F1FF3F00F01187B9
S1132C904A462946384603F01BF80A90002800F0FB
S1132CA0E7850A9BDB1B0993A94623EAE37308948F
S1132CB00493CDF82890CDF83C90CDF85090CDF801
S1132CC044909DF88B208CE548F010039A063FF55C
S1132CD0B2AE089ADF0602F1040100F17E835D06BC
S1132CE0089A00F1E4849C0540F1778314780891F4
S1132CF000250122A9E67C4B179318F0200F7FF4DE
S1132D00ECAE089A18F0100F02F1040340F054835B
S1132D1018F0400F089A40F0D08418F4007F00F0B7
S1132D204B83147808930025E0E69DF88B309AF8DD
S1132D300060002B7FF446AC20238DF88B3041E4F7
S1132D409AF800606C2E03BF9AF8016048F02008DE
S1132D500AF1010A48F0100834E4089A18F0200F28
S1132D6052F8043B089200F0A183059A1046D1174B
S1132D70C3E9000157464DE69AF80060682E03BF88
S1132D809AF8016048F400780AF1010A48F0400812
S1132D9018E40899554B0C68179347F63002043130
S1132DA0ADF88C2048F00203089100250222782611
S1132DB04BE648F008089AF8006003E448F0100372
S1132DC09F063FF5D1AC0899DD0601F1040200F13C
S1132DD0FD825C06089900F17584980540F1F6823D
S1132DE091F900400892E51720462946C7E4089A5D
S1132DF018F0100F02F1040340F0E38218F0400FC2
S1132E00089A40F0678418F4007F00F0DA8214789E
S1132E100893002588E4D9F8580002F03BFC4FF0F1
S1132E20FF33059343E4002E3FF4F8AD0023012162
S1132E301A4604918DF8F4608DF88B300A93994604
S1132E400F931493119309913DAFCEE4652E40F393
S1132E50CA8000220023DDE9120104F08FFF00285C
S1132E6000F069812B9B224ACBF800200133013406
S1132E700122072BCDE92B34CBF8042000F3068480
S1132E800BF1080B249B109A2C9C934203DB18F043
S1132E90010F3FF46AAD2B9B169ACBF80020159ACC
S1132EA0CBF8042001331444072BCDE92B3400F371
S1132EB017850BF1080B109B5D1E002D7FF755AD98
S1132EC0102D2B9A0B4B40F3E7821946102623460C
S1132ED0039FDDF81C900C4614E000BFFFFFEF7F5A
S1132EE08883000084830000A8830000948300008A
S1132EF0C4830000F88300000BF1080B103D102D73
S1132F0040F3C78201321033072ACDE92B23CBE9E2
S1132F100046F1DD2AAA4946384603F0C7FC0028DA
S1132F204CD1DDE92B230DF1B40BE7E7069B049AA2
S1132F309D1A002D7FF7C9AC102D2B9ABC4B27DDB1
S1132F4059462046BB461C463746079E04E0103DC2
S1132F50102D01F1080116DD013210301023072A6B
S1132F60CDE92B200C604B60F1DD2AAA3146039891
S1132F7003F09CFC002840F0A880103D102DDDE9F2
S1132F802B202DA9E8DC3E4623465F4604468B46AB
S1132F9001322C44072ACDE92B24CBE9003500F378
S1132FA092820BF1080B90E42AAA0799039803F084
S1132FB07DFC00283FF423ADDDF81C900A9911B183
S1132FC0039802F035FAD9F86420B9F80C30D00728
S1132FD002D4990540F1D0815A063FF565AB0598B6
S1132FE057B0BDE8F08F109A2B9B012A04F101041D
S1132FF003F101050BF1080640F31C810123072DA1
S1133000CBF80070CDE92B54CBF8043000F3BB812E
S1133010159B169A691C1C4407290B91CDE92B14A6
S1133020C6E9002300F3BB8108360B9A531C1D46E6
S11330300995109D0E9300220023DDE9120105F18C
S1133040FF3906F1080B04F099FE002840F0C28015
S1133050099DC6F8049001374C44072D37602C9421
S11330602B9500F3F9800B9A06F1100302325E46A9
S113307009929B46199A72601444099A2C9426ABBF
S1133080072A2B9233607FF770AC2AAA079903981A
S113309003F00CFC00288FD12C9C0DF1B40B64E4DC
S11330A0179856AF230904F00F0143EA05732A0960
S11330B01C461546435C07F8013D54EA0503F1D16B
S11330C0049BDB1B0993FFF780BBB14676E72AAA72
S11330D00799039803F0EAFB00287FF46DAF2C9C5A
S11330E00DF1B40BFFF7DDBB2AAA0799039803F08F
S11330F0DDFB00287FF460AF2C9C0DF1B40BFFF7CF
S1133100E0BB9846002D08BF0A2C80F0708156AFB2
S11331103034012307F8014D0993FFF756BB2AAA5F
S11331200799039803F0C2FB00287FF445AF2C9C59
S11331300DF1B40B06E4249B002B40F37382DDE90C
S113314010239342A8BF1346002B1D460DDD2B9B75
S1133150CBF8007001332C44072B2C94CBF804508B
S11331602B9300F3C1820BF1080B119B002DA8BF18
S11331705B1B002B1D4640F39980102D2B9A2C4B82
S113318040F3DB83184621465B461026BB46DDF838
S11331900C90079C074604E00833103D102D40F3C3
S11331A0C78301321031072ACDE92B21C3E9007608
S11331B0F2DD2AAA2146484603F078FB002840F0B5
S11331C0A584DDE92B212DABE7E7CDF8249056AF9C
S11331D0FFF7FBBAB9F1000F7FF74CAFB9F1100F4D
S11331E0134B40F359861946224633461027DDF81F
S11331F00CB0079C0E9D0E4607E00833A9F1100998
S1133200B9F1100F40F3538301351032072DCDE986
S11332102B52C3E90067F0DD2AAA2146584603F081
S113322045FB002840F07284DDE92B522DABE5E725
S1133230F883000018F0010F7FF4E0AE0122072D9F
S1133240CBF80070CDE92B54CBF8042004DC023316
S113325009930BF1100B0DE72AAA0799039803F0C1
S113326025FB00287FF4A8AEDDE92B340133099354
S11332700DF1BC0B2DAEFDE62AAA0799039803F0C5
S113328015FB00287FF498AE9DF88B202C9C0DF143
S1133290B40BFFF7F6BA2AAA0799039803F006FBC2
S11332A000287FF489AE2C9C0DF1B40B119B18F40B
S11332B0806F3B44994640F05783249B109A934275
S11332C049DB18F0010F46D1109ABD18A5EB09058A
S11332D0D31A9D42A8BF1D46002D0DDD2B9ACBF8B5
S11332E0009001322C44072A2C94CBF804502B92E2
S11332F000F362840BF1080B002DACBF5D1B1D466F
S1133300002D7FF732AB102D2B9AC54B40F3C480B0
S1133310194610262346039FDDF81C900C4605E051
S11333200BF1080B103D102D40F3B3800132103324
S1133330072ACDE92B23CBE90046F1DD2AAA494629
S1133340384603F0B3FA00287FF438AEDDE92B23C6
S11333500DF1B40BE6E72B9A1699CBF800101599EA
S1133360CBF8041001320C44072A2C942B9200F35E
S11333708C820BF1080BA7E7D9F8580002F08AF900
S1133380B9F80C3028E62AAA0799039803F08EFAB4
S113339000287FF411AEDDE92B542DAE38E62AAABD
S11333A00799039803F082FA00287FF405AEDDE95B
S11333B02B342DAE0B9338E6146808930025FFF7E1
S11333C095BB146808930025FFF7AEB90C68089202
S11333D0E51720462946FFF7D2B91468089101225F
S11333E00025FFF732BB012A7FF43CAB8FE608F4DB
S11333F080630022CDE909A6CDF82C8056AF924611
S1133400DDF868801E460AE00023204629460A2289
S113341004F024FD04460D4654EA050329D00A228B
S113342000232046294604F019FD303207F8012C08
S11334300AF1010A013F002EE6D098F800309A45BF
S1133440E2D1BAF1FF0FDFD0002D08BF0A2CDBD385
S11334501B9B1899FF1A1A46384603F03FF998F84F
S11334600130002B00F0968408F101084FF0000AA7
S1133470CAE7049BCDF86880DB1BCDF840A00A9E08
S1133480DDF824A0DDF82C800993FFF79EB9C1462E
S113349094E521461C460B4601322C44072ACDE90B
S11334A02B24CBE900357FF75EAAEEE518F0100F68
S11334B040F0F88018F0400F00F05183059A1A800C
S11334C05746FFF7A7BA2AAA0799039803F0EEF91B
S11334D000287FF471AD2C9C0DF1B40BFFF7F5B906
S11334E0DDE9120102460B4604F07AFC002840F0A4
S11334F09184612E00F01181412E00F0778348F40D
S1133500807326F02002B9F1FF3F0E930492139BBF
S113351000F02D84472A00F02484002BC0F2F982A5
S11335209DED127BCDE90A008DED1E7B662E00F029
S1133530EB83462E00F07E84049B0398452B0CBF3E
S113354009F101054D4628AA25ABCDE90032022137
S113355024AB2A469DED1E0B00F0B2FE672E0746F3
S113356040F09C8418F0010F40F0F983289B4046FA
S1133570DB1BDDF838801093249B1193049B472BAD
S113358000F0E781049B462B00F000830499119B13
S1133590F2B2412908BF0F3203F1FF3306BFD2B2A2
S11335A001210021002B2493B8BF119B8DF8982092
S11335B0BABFC3F101032D222B22092B8DF89920C8
S11335C000F3F983002940F0878430228DF89A2093
S11335D00DF19B0230331370531C26AA9B1A109AC8
S11335E01993012A1344099340F34284099B159AC1
S11335F01344099300230F9314931193099B20F40C
S1133600806023EAE37340F4807804930B9B002BDF
S113361040F0758299469DF88B20FFF7E2B800BF11
S1133620F88300002B9ABD49CBF800100132013415
S11336300121072ACDE92B24CBF8041060DC0BF11F
S1133640080B2BB9109A1AB918F0010F3FF48DA981
S11336502B9A1699CBF800101599CBF80410013267
S11336600C44072A2C942B9200F382820BF1080B52
S1133670002BC0F2E782109B01321C44072ACDE9DB
S11336802B24CBE900737FF76EA9FEE42AAA0799DD
S1133690039803F00BF900287FF48EAC0DF1B40B02
S11336A0FFF7F0BB059A1A605746FFF7B3B91488C1
S11336B0089100250122FFF7C8B914880893002552
S11336C0FFF714BAB1F900400892E51720462946DD
S11336D0FFF755B8148808930025FFF725B82D2265
S11336E08DF88B20FFF7A2BA2AAA0799039803F052
S11336F0DDF800287FF460AC2C9C0DF1B40B34E5AC
S11337002AAA0799039803F0D1F800287FF454AC4F
S1133710249B2C9C0DF1B40B93E730238DF88C3053
S11337207823B9F1630F8DF88D3048F0020400F36B
S1133730B08248F481730E9326F020030493002290
S1133740139B0A92A0463DAF002BC0F2E3819DED8E
S1133750127B8DED1E7B00230B93612E00F05582AE
S1133760412E7FF4E3AE24A89DED1E0B02F0B0FEC3
S113377000224FF07F5351EC100B04F097F8002215
S11337800023CDE90C0104F0F9FA002840F0058388
S1133790634B0993CDE90FA609F1FF34CDF850909E
S11337A02197B946CDF844B0CDF88080DDF824A047
S11337B0DDE90C6703E004F0E1FA20BBA94600222E
S11337C0584B3046394604F071F80F46064604F06B
S11337D01DFB804604F000F802460B46304639468D
S11337E003F0ACFE4D461AF808C005F801CBB4F15D
S11337F0FF3FA34606460F464FF000024FF000037A
S113380004F1FF34D7D1304639460022464BDDF867
S11338103CA0109ECDF83CB04446CDF84090DDF875
S11338208080DDF85090DDF844B0219FCDE90C0193
S113383004F0CCFA002840F07681DDE90C01002286
S1133840394B04F09BFA10B1E20700F16C810F9B35
S1133850002B07DB0F9B01332B44302205F8012B8F
S1133860AB42FBD1EB1B40461093DDF8388083E676
S1133870CDF81090CDF82490089481460F901490C0
S113388011909DF88B20FEF7ACBF2AAA07990398E4
S113389003F00CF800287FF48FAB249B2C9C0DF1D3
S11338A0B40B11E5524206920893FFF76DB9144622
S11338B032461E4613462A460132099206F1080290
S11338C0C6E90039099B2B934C44072B2C943FF7F2
S11338D0C3AC0133099302F1080B1646FFF7CABBC8
S11338E02AAA0799039802F0E1FF00287FF464AB49
S11338F02C9C0DF1B40BFFF7DEBA4B46062B28BF08
S11339000623B9460F97149711970A973A460493DA
S1133910CDE90843054FFEF764BF00BFC483000030
S1133920A8830000000030400000E03FBC8300009A
S11339300C4639465F469B460B4601322C44072A07
S1133940CDE92B24CBE900353FF7A5AC0BF1080BEF
S1133950ACE4119BDA1C02DB994580F2B580023E8F
S113396026F02003049311E6109BCDF838805A46C4
S1133970DDE91A8BFB18CDF82CA00C97AF4EDDF8BF
S11339801CA009934F46DDF80C902146149B002B94
S11339905BD00F9B002B54D1149B013B08F1FF38E3
S11339A014932B9B1898106001335944072B2C91C6
S11339B0C2F804B02B9368DC0832099898F80030F8
S11339C0C51B9D42A8BF1D46002D0BDD2B9B176018
S11339D001332944072B2C9155602B935EDC98F816
S11339E000300832002DACBF5D1B1D46002D26DDC6
S11339F0102D2B983CDD102403E00832103D102DCF
S1133A0036DD013010310728CDE92B01C2E900640D
S1133A10F3DD2AAA5146484602F048FF002850D157
S1133A20DDE92B012DAAE9E72AAA5146484602F00E
S1133A303DFF002845D198F800302C992DAA1F4449
S1133A40A4E70F9B013B0F93ABE70F9B002BF8D12F
S1133A50B946109B0C9FCDF86880FB189945DDF89A
S1133A602CA0DDF8388093460C4628BF994624E400
S1133A70013029440728CDE92B01C2E90065D3DCD4
S1133A8098F8003008321F4480E72AAA5146484675
S1133A9002F00CFFA8B92C992DAA8EE72AAA514648
S1133AA0484602F003FF60B998F800302C992DAA1B
S1133AB098E7384602F0A4FDA94603460990FFF7AB
S1133AC0F4B8D146FFF77ABA109B1946119B994274
S1133AD000F38280C40740F16B81159A1344099363
S1133AE0410503D5119B002B00F3E680099B23EAD3
S1133AF0E3730493672600230F93149386E52D2222
S1133B008DF88B204FF00009FEF76CBEA146FFF73D
S1133B1055BA0A90DDE9121202F100431F932D23D6
S1133B201E910B9319E6109B2893099B15F8012C01
S1133B30D97B91422B4609D1302003F8010C289BF4
S1133B405A1E289213F8012C9142F6D0392A0BBF41
S1133B50099A0132927AD2B203F8012C82E618F45F
S1133B60007F3FF49FAD059A1A705746FEF752BF87
S1133B702AAA0799039802F099FE00287FF41CAA48
S1133B80249BDDE92B240DF1B40B71E5119B002B73
S1133B9040F36481119BB9F1000F40F00381C60723
S1133BA000F1008109936626430500F18680099B94
S1133BB023EAE37304939EE72AAA0799039802F081
S1133BC075FE00287FF4F8A9249B109A2C9CD31A24
S1133BD00DF1B40BFFF790BB109B159A1344099396
S1133BE0119B002B40F349816726DDE730238DF8D4
S1133BF08C30582395E503982AAA494602F056FECC
S1133C0000287FF4E0A9FEF70FBF24A89DED1E0B4A
S1133C1002F05EFC00224FF07F5351EC100B03F0D6
S1133C2045FE00220023CDE90C0104F0A7F808B1F9
S1133C3001232493024B0993ACE500BFF8830000F1
S1133C40948300005D421033B94B80F2978019468B
S1133C5010262346DDF80C900C4605E00BF1080B0A
S1133C60103D102D40F3878001321033072ACDE92F
S1133C702B23CBE90046F1DD2AAA0799484602F036
S1133C8015FE00287FF498A9DDE92B230DF1B40B70
S1133C90E6E709F10101039801F076FD07460028E3
S1133CA000F03B8148F481730E9326F020030493C3
S1133CB0A046139B0A9047E567261A9800220F92A4
S1133CC014920378119AFF2B0CD093420ADA4178AC
S1133CD0D21AA9B1149B013314930B46FF2B00F1A4
S1133CE00100F2D11192149B0F9A09991A9013446E
S1133CF01B9A02FB0313099323EAE373049385E4F9
S1133D000F9901310F91DEE728AA25ABCDE90032E6
S1133D10032124AB4A469DED1E0B039800F0D0FA14
S1133D204D46074600EB09043B78302B00F0BE807B
S1133D30249D2C4400220023DDE91E0104F01EF81A
S1133D4008B1234613E4289BA342BFF410AC3021EE
S1133D505A1C28921970289B9C42F9D807E47C19B4
S1133D60E8E7B9F1000F00F092800A90ECE40A90C1
S1133D704FF00609E8E421461C460B4601322C4468
S1133D80072ACDE92B24CBE9003500F3A9800BF1F8
S1133D90080B70E49A46FFF737BB01232493654B65
S1133DA00993F7E4159A13444B4409936626FBE6FA
S1133DB0119B099394E60DF1A70C64465E4D00E057
S1133DC01446A5FB0312D20802EB8201A3EB4103C4
S1133DD003F130011346092B04F8011C04F1FF32EE
S1133DE0EEDC3033023CDBB2A44502F8013C40F285
S1133DF090800DF19A04114601E011F8013B04F89A
S1133E00013B8C45F9D12AAB9B1A0DF19A0213445C
S1133E10FFF7E3BB139B494F002BB6BF2D229DF840
S1133E208B208DF88B20464BFEF702BFDDF81C90EB
S1133E30FFF7C9B828AA25ABCDE90032032124AB8A
S1133E404A469DED1E0B039800F03AFA4D4607468C
S1133E50462E07EB05043FF467AF6BE7B9F1000F9B
S1133E6031D1C5072FD4012304930993662642E672
S1133E70C3077FF5BFABFFF7B9BB099AC3F10103D1
S1133E801A4422EAE27309920493672633E6CDF8D2
S1133E9028904FF0010957E45A4611E5472E7FF464
S1133EA05EAF18F0010F3FF461ABD1E700220023AD
S1133EB0DDE91E0103F062FF00287FF439AFC5F18C
S1133EC00105249535E7159B01334B44099323EAF7
S1133ED0E373049366260EE60DF19A02FFF77ABBAC
S1133EE02AAA0799039802F0E1FC00287FF464A849
S1133EF0DDE92B240DF1B40BFFF7BDBB08999AF84B
S1133F0001600B6843EAE3790B1D92460893FEF7C0
S1133F1059BB0DF19A03FFF760BBDDF81C90B9F8AB
S1133F200C3043F04003A9F80C30FFF74CB800BF45
S1133F30F8830000A8830000CDCCCCCC9083000093
S1133F408C8300002DE9F0410C46ADF58D6D898917
S1133F50666EE589199621F002010646E069ADF81E
S1133F600C1017464FF48061626AADF80E50984603
S1133F701AAD0023079016A809920693009504959C
S1133F800291059101F080FB43463A46694630466A
S1133F90FEF79AFA051E07DB3046694601F04AF936
S1133FA0002818BF4FF0FF35BDF80C305B0603D571
S1133FB0A38943F04003A381169801F067FB2846C8
S1133FC00DF58D6DBDE8F08138B5314B1B680546A4
S1133FD00C4613B19A6B002A3AD0B4F90C2093B270
S1133FE018070CD52069A8B113F0010220D0636929
S1133FF000225B42A361A26000B3002038BDD90651
S11340003ED5580728D4206942F00803A3819BB207
S11340100028E9D103F42072B2F5007FE4D02846E9
S1134020214601F067FBA389206913F00102DED168
S1134030990758BF6269A2600028DED1B4F90C3038
S11340401A06DBD543F04003A3814FF0FF3038BD9F
S1134050184601F04BF9C0E7216B51B104F140035C
S1134060994204D0284601F0E3F9B4F90C20002366
S1134070236300232069636022F024022060C3E7E5
S113408042F0400209232B604FF0FF30A28138BD7B
S11340901C000420024B13B1024800F079B87047A9
S11340A0000000005D5300002DE9F04F354B85B052
S11340B00F460390186801F0EBFA334B1B68019329
S11340C003F5A4730293B946019BD3F848613EB348
S11340D0DDF808A04FF001087468651E0FD40134A0
S11340E006EB84040027B9F1000F20D0D4F8003186
S11340F04B451CD0013D6B1CA4F10404F3D1234BAC
S113410073B1D6E90032002A34D1002B32D03046C4
S1134110CAF80030AFF30080DAF80060002EDBD17B
S1134120184B186805B0BDE8F04F01F0B3BA7368D6
S11341302268013BAB420CBF75602760002AD9D0CE
S1134140D6F88811D6F804B008FA05F30B4208D162
S1134150904773685B45B7D1DAF80030B342C9D0F1
S1134160B2E7D6F88C01D4F88010034207D1039843
S11341709047EEE7B2461E46002EADD1D0E7084682
S11341809047E6E748040420808300000000000014
S1134190002301461A46184602F0A8BB2DE9F04F49
S11341A003690F69BB4283B0C0F28680013F01F10D
S11341B0140900F1140A59F827205AF82730BC00D2
S11341C00132B3FBF2F80AEB0403009409EB040B8D
S11341D00193B8F1000F38D000252E46CE46D446C0
S11341E05EF8044BDCF80030A2B208FB0255220C46
S11341F02C0C08FB0242ADB2751B96B2C6EB1346FB
S113420015FA83F306EB23469BB243EA0643F345D0
S11342104FEA12454CF8043B4FEA2646E0D2009B95
S11342205AF803308BB9019A131F9A450CD252F8ED
S1134230043C4BB9A2F1080302E01A68043B1AB922
S11342409A4507F1FF37F8D30761044602F04CF8AA
S113425000282DDB08F101085546002359F8041BFA
S113426028688AB29A1A0B0C12FA80F2C3EB104334
S113427003EB224392B242EA0342CB4545F8042BB6
S11342804FEA2343EAD25AF827200AEB87037AB984
S11342901A1F92450BD253F8042C42B9083B02E092
S11342A01A68043B1AB99A4507F1FF37F8D3276116
S11342B0404603B0BDE8F08F002003B0BDE8F08FA6
S11342C02DE9F04F55EC104B9BB0066C02918146E2
S11342D007920593CDE9004556B1426C7260012303
S11342E09340B360314601F00FFE0023C9F840301B
S11342F0B5F10008249AB4BF012300231360764B60
S1134300BCBF28F00048CDF8048033EA080300F06D
S1134310A680DDE90067002200233046394603F019
S11343202DFD054678B1059A01231360259B002BCA
S113433000F0C080694B259A03F1FF3B1360584697
S11343401BB0BDE8F08F18AA19A947EC106B4846BA
S113435002F05CF85FEA1854824640F0A080DDE980
S113436018542C4404F23243202B40F32C84C3F120
S1134370400308FA03F8009B04F2124023FA00F009
S113438048EA000003F018FA01230646013CA1F1B3
S1134390F8770F93304639460022514B03F0CEF89C
S11343A047A3D3E9002303F081FA47A3D3E9002309
S11343B003F0C6F8064620460F4603F00DFA44A360
S11343C0D3E9002303F072FA02460B46304639461D
S11343D003F0B6F806460F4603F018FD00220690D7
S11343E000233046394603F0D3FC002840F07382A2
S11343F0069E162E00F25D823A4B03EBC603D3E908
S11344000001DDE9002303F0E1FC002800F0D7837C
S1134410731E069300230D932C1BB4F1010800F1C5
S1134420548200230893069B002BC0F245829844D3
S11344300C9300230B93029B092B5BD8052B40F3B1
S1134440C083043B02930025029B023B032B00F232
S11344509884DFE813F0DF03BF03E803F504059A4B
S113446042F20F731360009B83B9C8F313036BB953
S1134470259BDFF874B0002B3FF461AF0BF1080308
S1134480259A584613601BB0BDE8F08F259BDFF8D2
S11344905CB0002B3FF453AF0BF10303F0E7C7F319
S11344A0130343F07F570F95A4F2FF3447F44017EA
S11344B0189D6FE7DFF838B058461BB0BDE8F08FA1
S11344C061436F63A787D23FB3C8608B288AC63F16
S11344D0FB799F501344D33F0000F07FC583000055
S11344E00000F83F408400000884000014840000A9
S11344F0C48300004FF0FF340125CDE909450023B2
S1134500029307930021C9F844100E94484601F021
S1134510D5FC0E2C8346C9F8400000F2FB80002D28
S113452000F0F8809DED007B069900298DED107B4D
S113453040F3E5839D4B01F00F0203EBC20393EDBF
S1134540007B0C11E2068DED007B40F19E84984BBC
S1134550DDE91001D3E9082303F0D2FACDE9120111
S113456004F00F0403267CB1DDE90001904DE3075C
S113457004D5D5E9002303F099F90136641005F157
S11345800805F4D1CDE90001DDE90023DDE91201DC
S113459003F0B6FACDE900010D9B43B10022854B2F
S11345A0DDE9000103F0F4FB002840F0FF8430460D
S11345B003F012F9DDE9002303F078F97E4B0022C1
S11345C002F0BEFF099B0646A1F15077002B00F0D4
S11345D01C84069B1693099B1293DDE9000103F0EA
S11345E015FC129A714B03EBC20313ED027B00F12D
S11345F030058DED147B03F0EFF80B460246DDE940
S11346000001CDE9006702F099FF0A9BEDB206466E
S11346100F460BF10104002B00F05884DDE914234C
S11346200020664903F06CFADDE9002302F086FFFE
S11346308BF8005032463B46CDE9000103F0C6FB3F
S1134640002840F0028532463B460020594902F0DA
S113465075FF02460B46DDE9000103F0B7FB0028B5
S113466040F0FB84129A012A50D05A44CDF85C8061
S1134670CDF848A0CDF850B09246CB46DDE900898C
S11346800CE000204B4902F059FF42464B4603F030
S11346907FFB002840F0DC84544530D04046494636
S11346A00022474B03F002F90022454B804689461D
S11346B03046394603F0FAF80F46064603F0A6FBE7
S11346C0054603F089F802460B463046394602F0A7
S11346D035FF3035EDB242464B4604F8015B0646E1
S11346E00F4603F055FB32463B460028C9D0169BC3
S11346F0DDF848A00693D946DDF850B036E2D94635
S1134700DDF85C80DDF848A0DDF850B0DDE9103458
S1134710CDE90034199B002BC0F2AE80069A0E2A14
S113472000F3AA80214B03EBC20393ED007B079BAC
S1134730002B8DED027BC0F2BE82DDE90067DDE96E
S113474002233046394603F0DBF903F05FFB0546EC
S113475003F042F8DDE9022303F0A8F80B46024611
S11347603946304602F0EAFE05F130038BF800309A
S1134770099B012B06460F460BF1010453D000227E
S11347800F4B03F093F80022002306460F4603F074
S1134790F5FA002840F0EA81CDF800A0CDF81C908D
S11347A0DDF82480DDE9029A17E000BF40840000B0
S11347B0188400000000F03F00001C400000E03FAF
S11347C00000244003F072F80022002306460F463E
S11347D003F0D4FA002840F03D834A46534630465D
S11347E0394603F08DF903F011FB054602F0F4FF9E
S11347F04A46534603F05AF802460B4630463946B9
S113480002F09CFE05F1300C04F801CBA4EB0B0C78
S1134810E04506460F464FF00002C14BD2D1DDF809
S113482000A0DDF81C9032463B463046394602F083
S113483087FEDDE9022306460F4603F0C7FA58B99E
S1134840DDE902233046394603F098FA002800F0E7
S11348508D81E90740F18A8114F8015C05E09B45EC
S113486000F0738313F8015C1C46392D04F1FF3307
S1134870F5D001351D7079E10A9A002A3BD0029ADD
S1134880012A40F30B82099B5F1E0B9BBB42C0F2C3
S1134890E682DF1B099B002BC0F20B83089A1446A7
S11348A01A44984408920121484601F0C7FB054682
S11348B024E001230D93AFE5089A069BD21A5B42CC
S11348C00B93002308920C93B5E5C4F101030893FC
S11348D04FF00008A7E5DDF81880404602F07CFFA1
S11348E032463B4603F04AFA00287FF481AD08F1D2
S11348F0FF3306937CE50B9F089C0A9D002C0CDD7E
S1134900B8F1000F09DD4445089A2346A8BF434681
S1134910D21A0892E41AA8EB03080B9B6BB10A9A0B
S1134920002A00F09082DE1B002F40F09B8151464C
S11349303246484601F032FC82460121484601F0E5
S11349407DFB0C9A0646002A40F02581029B012B30
S113495040F36C810120404410F01F0000F01981E5
S1134960C0F12003042B40F3AC83C0F11C00089B6E
S11349700344089304448044089B002B05DD5146FE
S11349801A46484601F05AFC8246B8F1000F05DD8C
S113499031464246484601F051FC06460D9B002B29
S11349A077D1099B002B40F309820A9B002B00F06E
S11349B08980002C00F36B810C9B002B40F0CD818F
S11349C0A846009ACDF82CB002F001020A92099A86
S11349D00BF1FF331A445F460992B34659465046D9
S11349E0FFF7DCFB29460446504601F07DFC59469E
S11349F006464246484601F093FC04F13003009316
S1134A00C3680146002B40F0D4810890504601F061
S1134A106BFC089A07901146484601F075FA079B0B
S1134A2033B9029A22B90A9B002B00F01983029B26
S1134A30002EC0F21C8205D1029A1AB90A9A002AE1
S1134A4000F01582002B07F1010400F32582009B7E
S1134A503B70099BBB4200F03082514600230A227E
S1134A60484601F05BFA4545824629464FF000036B
S1134A704FF00A02484600F0968101F04FFA414691
S1134A80054600230A22484601F048FA2746804694
S1134A90A4E73146504601F027FC002881DA069F3E
S1134AA0514600230A224846013F069701F036FA90
S1134AB00A9B8246002B40F0EB820E9B002B40F3B6
S1134AC0F38209935C46DDF8248002E001F026FAC3
S1134AD0824631465046FFF761FB00F1300704F887
S1134AE0017BA4EB0B0398454FF00A024FF000033F
S1134AF051464846EADC00230097029351460122BE
S1134B00484601F09BFB3146824601F0EDFB00284C
S1134B1014F8012C14DC08D1009BDB0710D404E04A
S1134B200000244014F8022C1C46302A04F1FF3300
S1134B30F8D00BE09B4500F04E8113F8012C1C4685
S1134B40392A04F1FF33F5D001321A703146484650
S1134B5001F0DAF955B1029921B1A94202D04846CF
S1134B6001F0D2F92946484601F0CEF951464846AB
S1134B7001F0CAF90022069B2270059A01331360E2
S1134B80259B002B3FF4DBAB58461C601BB0BDE8F3
S1134B90F08F1C20EBE60146484601F0FFFA029B29
S1134BA0012B064640F3D48000230C93336906EBB3
S1134BB08303186901F0F2F9C0F12000CBE60D90EF
S1134BC02AE4012540E4C3F12008009B03FA08F01D
S1134BD0FFF7D8BB00230A93DDE9063213440E9392
S1134BE00133012B1E460993B8BF01260021172E5D
S1134BF0C9F84410099C7FF789AC012204235B00A7
S1134C0003F11400B042114602F10102F7D9C9F8C8
S1134C1044107BE400230A93079E002E40F3E280B5
S1134C200E960996E2E701230A93F5E7009B002B11
S1134C307FF490AEDDE90012C2F31303002B40F0C1
S1134C40928122F000431B0D1B052BB1089B0133FD
S1134C50089308F1010801230C9A0C93002A3FF4ED
S1134C6079AEA3E73A462946484601F097FA5246F8
S1134C7001460546484601F0EBF9514607464846C9
S1134C8001F042F9BA46002E3FF457AE4FE62946EA
S1134C902246484601F0D2FA05468DE60F9A002ACC
S1134CA000F05D8103F23343089A0B9F14461A44C3
S1134CB098440892F7E5099B002B3FF73EAD40F07E
S1134CC0BC8051EC170B0022B24B02F0EFFDDDE982
S1134CD0002303F071F8099E3546002876D1069A20
S1134CE03123013206928BF800300BF10104314676
S1134CF0484601F009F9002D7FF434AF36E700F09F
S1134D004281069B5C42A44B04F00F0203EBC203F6
S1134D10D3E90023DDE9100102F0C8FD2411CDE937
S1134D20000100F0C6819D4D00230226E70705D54A
S1134D30D5E9002302F0BAFD01360123641005F120
S1134D400805F3D1002B3FF427ACCDE9000123E49F
S1134D50009B002B3FF46EAF26E76968484601F0DC
S1134D60ADF82B6902339A00044605F10C010C30AE
S1134D7000F0FEFF21460122484601F05FFA80461A
S1134D801FE60024C9F844402146484601F096F83D
S1134D904FF0FF330E930993012383460794C9F818
S1134DA040000A93B6E401F0B9F827460546804668
S1134DB014E6484601F0A8F8012339E6029B022BC9
S1134DC07FF7F3AD099B002B00F0CF80079BDB43FB
S1134DD006935C468BE7069A3123013206928BF8E0
S1134DE00030B3E6012409940794FFF78BBB3046E7
S1134DF002F0F2FCDDE9002302F058FD0022684BCA
S1134E0002F09EFB0646A1F150770022614BDDE9DA
S1134E10000102F093FB32463B4604460D4602F085
S1134E20D5FF00284FD1324607F1004320462946DA
S1134E3002F0AEFF00283FF469AC00263546C5E712
S1134E4001230A93C8E651460B9A484601F0A6F995
S1134E50824672E5DDF800A0DDF81C9086E60B9B27
S1134E600C9AFB1A1A44CDE90B72002712E5002BA9
S1134E7002945E4607F10104DDF82CB000F3BA8019
S1134E80009B02953B70454660E69DED107B022633
S1134E908DED127BFFF767BB009B392B5E46DDF877
S1134EA02CB000F0B980009B029501333B7045465D
S1134EB04CE6DDE908329C1AF5E45E460295DDF81D
S1134EC02CB045461AE60026354608E7DDE91423EA
S1134ED0DDE9000102F0EAFC129B8BF80050012B83
S1134EE0CDE9000120D0129BCDF848805B44984660
S1134EF000222C4B3046394602F0D8FC0F460646B9
S1134F0002F084FF054602F067FC303502460B468A
S1134F103046394602F012FB04F8015B444506466C
S1134F200F46E5D1DDF848801F4B0022DDE9000182
S1134F3002F006FB32463B4602F02AFF002870D0FE
S1134F40169B069314F8015C8FE430238BF8003031
S1134F50069B14F8015C013306935B4689E4189BB5
S1134F60C3F13603A0E6002376E63146052248461F
S1134F7000F0D4FF01460646504601F0B5F900287A
S1134F803FF7ADAE22E79DED107B02268DED007B51
S1134F90FFF702BB000014404084000018840000A6
S1134FA000001C40000024400000E03F099B002B4F
S1134FB03FF41DAF0E9C002C7FF7A8AB0022454B9D
S1134FC0DDE9000102F072FCCDE90001701C02F081
S1134FD003FCDDE9002302F069FC3F4B002202F0F0
S1134FE0AFFA069B1294013B0646A1F15077169343
S1134FF0FFF7F3BA51460122484601F01FF9314642
S1135000824601F071F900283BDD009B392B03D067
S1135010029B3133009333E7392202953A704546B7
S11350208EE5DDE9002300202C4902F087FA3246A0
S11350303B4602F0CBFE10B9FFF768BB144614F8E8
S1135040013C302B04F1FF32F8D0169B06938DE51A
S1135050D946DDF848A0DDF850B0169B069304E469
S1135060009B392B2146324607F101045E46DDF8E8
S11350702CB0D1D0002A7FF703AF0B463133009315
S1135080FEE67FF4FDAE009BDA077FF5F9AEBCE7E0
S1135090294600230A22484600F040FF0E9B002BBD
S11350A0054609DD099384E4029B022B0EDC0E9B6A
S11350B007E50226FFF770BA029B022B06DC0E9B63
S11350C0F0E73FF459ACC0F13C0050E40E9B099367
S11350D078E600BF0000244000001C400000E03FD0
S11350E0B1F90C309AB22DE9F0410C461107804613
S11350F044D4626843F40063002AA38159DDA56A9D
S1135100002D53D000229BB2D8F80060E169C8F8A2
S1135110002013F4805240F0838001234046A847C6
S1135120421C4AD0A389A56AE1695B0705D5626878
S1135130236B801A0BB1E36BC01A0246002340466E
S1135140A847471C45D0B4F90C302269226023F4E7
S113515000630022A381DB04626000D52065216B1B
S1135160C8F8006011B304F14003994202D04046EC
S113517000F05EF900202063BDE8F0812669AEB13D
S11351802568266092070CBF63690023AD1BA360EA
S11351900AE02B463246676AE1694046B847002870
S11351A0A5EB000506442BDD002DF2DC0020BDE854
S11351B0F081E26B002AA2DCF8E7D8F80030002B7B
S11351C0B0D01D2B01D0162B2CD1C8F800600020C4
S11351D0EDE7D8F800101D291AD8154BB4F90C20A6
S11351E0CB40DB4313F0010314D1256922F40062A0
S11351F0C4E90053D504A281B1D50029AFD1ADE7EC
S1135200A38943F04003A3814FF0FF30BDE8F08150
S1135210B4F90C2042F04002A2814FF0FF30C6E7FF
S1135220206D82E7A38943F04003A381BFE700BF59
S11352300100402038B50D46044608B1836BA3B184
S1135240B5F90C00B8B16B6EDB0701D481051AD532
S113525020462946FFF744FF6B6EDA07044602D462
S1135260AB899B050AD5204638BD00F03FF8B5F957
S11352700C000028E7D10446204638BDA86D00F094
S113528009FA204638BDA86D00F002FAE0E700BF35
S113529010B5002304468181C281C0E900338360D4
S11352A04366C0E904338361194608225C30FBF786
S11352B0A3FB07480749084A084BE362C4E90740CF
S11352C0C4E9091204F15800BDE8104000F0DCB94B
S11352D05D65000081650000BD650000DD650000BE
S11352E0014900F099B900BF396A000010B50446BD
S11352F0124800F0CDF9A26BD2B904F53B73104803
S1135300C4F8E8320321C4F8E022E063C4F8E412EC
S113531060680421FFF7BCFF01220921A068FFF7A0
S1135320B7FF02221221E068FFF7B2FF0123A36353
S11353300248BDE8104000F0ADB900BFE00A042007
S1135340E1520000014800F0A3B900BFF40A0420B0
S1135350014800F09FB900BFF40A042038B50A4C94
S11353600A4D641BA4100AD004F18043013B05EBF1
S11353708305013C55F804399847002CF9D1BDE860
S1135380384002F031BF00BFD4090420D009042002
S1135390F8B5244F0C46064600F084FDBB685D68F2
S11353A0C4F57E610F3125F00305294421F47F61A2
S11353B021F00F01A1F58054B4F5805F07DB0021D3
S11353C0304601F0B9F8BB682B44984204D030460B
S11353D000F06EFD0020F8BD6142304601F0ACF8EB
S11353E001300DD0104BBA6819682D1B45F001052A
S11353F03046091B5560196000F05AFD0120F8BDC4
S11354000021304601F098F8BA68831A0F2BDEDDCC
S1135410064C0549246843F00103001B53600860EF
S1135420D5E700BF4C040420040A042054080420D7
S1135430002953D0F8B50C46064600F033FD54F865
S113544004CC714F2CF00101A4F108056B18B86865
S11354505A68984222F0030253D01CF0010F5A609C
S113546003EB02003BD154F808CC4068A5EB0C05D3
S113547007F1080EAC687445614400F0010075D072
S1135480D5F80CC0C4F80CC0CCF8084060B341F0A7
S113549001036B606950B1F5007F50D34B0A042BB4
S11354A070D88B0903F13904E40003F13802381988
S11354B03B590838984278D05A6822F003028A424D
S11354C071D99B689842F7D1C368C5E902039D600E
S11354D0C5603046BDE8F84000F0EABC704740685B
S11354E000F001000028D2D19868484C1144A04231
S11354F041F0010262D0DB68C36098606A60695061
S1135500C9E71CF0010F0A4407D154F8083CED1A0E
S11355101A44D5E90213CB6099603D4B1B6842F0F5
S1135520010193426960BD6004D83A4B3046196862
S1135530FFF72EFF3046BDE8F84000F0B9BCC908BB
S113554078684A1C012389108B40034307EBC2018E
S113555057F832007B600839C5E9020147F8325038
S1135560C5603046BDE8F84000F0A2BC002845D133
S11355700A44D3E9021342F00100CB6099606860E9
S1135580AA50D7E7142B08D9542B1ED80B0B03F1C0
S11355906F04E40003F16E0289E703F15C04E400A4
S11355A003F15B0283E718468EE7931079680122C2
S11355B002FA03F30B437B60034686E7C7E904550D
S11355C0C5E902006A606950B4E7B3F5AA7F06D85A
S11355D0CB0B03F17804E40003F1770267E740F2B0
S11355E05452934206D88B0C03F17D04E40003F17A
S11355F07C025CE74FF47E747E2258E741F001029E
S11356006A60196096E700BF4C0404205404042027
S113561058080420340A04202DE9F84310F538779B
S11356201FD0884606464FF00009D7E90154013DD2
S113563011D4A389012B05F1FF352146304606D943
S1135640B4F90E30013302D0C04749EA00096B1C9B
S113565004F16804EDD13F68002FE6D14846BDE867
S1135660F883B9464846BDE8F88300BF044A054BB1
S11356701268506B002808BF1846F030704700BF0E
S11356801C0004205C080420704700BF704700BF62
S1135690704700BF704700BF70B50C46B1F90E10DB
S11356A0002996B015461E460FDAA289002312F08F
S11356B08000336004D14FF480632B6016B070BD5A
S11356C0402218462A6016B070BD6A4601F09EFA60
S11356D00028EADB019B03F47043A3F50053B3FAFB
S11356E083F35B094FF480624FF4006033602A60F7
S11356F016B070BD8A8992070B4606D501F14302A4
S113570001211A60C3E90421704770B582B001AB6E
S11357106A460C460546FFF7BFFF00990646284631
S113572000F032F8B4F90C30D8B11649E963019AA3
S11357300099206043F08003A381C4E904011AB9ED
S11357403343A38102B070BD2846B4F90E1001F0B2
S1135750EFFBA0B1A38923F0030343F001031BB2C1
S1135760EEE79A05EED423F0030304F1430243F079
S113577002030121A3812260C4E90421E2E7B4F910
S11357800C30DDE7E15200002DE9F04F01F10B058B
S1135790162D83B0064623D8102900F2B98000F0F4
S11357A081FB102518230220C54F3B44A3F10802B6
S11357B05C68944200F06681636823F00303234429
S11357C0D4E902515A68E96042F001028D60304622
S11357D05A6000F06DFB0834204603B0BDE8F08F3A
S11357E035F0070500F19480A94200F2918000F0A1
S11357F059FBB5F5FC7FC0F083816B0A00F08F8004
S1135800042B00F24681AB0903F1390003F1380C93
S1135810C300AB4F3B44A3F108015C68A14206D12D
S11358200CE0002A80F21D81E468A14206D063687E
S113583023F003035A1B0F2AF3DD60463C69DFF8AB
S113584094C2644571D0636823F003035A1B0F2A82
S113585000F34481002AC7E904CC80F22681B3F521
S1135860007F80F06981DB08591C7A6857F8318021
S1135870C4F808804FF0010E9B100EFA03F307EBF7
S1135880C10E1343AEF10802E2607B6047F8314079
S1135890C8F80C408210012494409C424BD81C420E
S11358A006D120F0030064001C4200F10400FAD089
S11358B007EBC009CE468046DEF80C309E4507D182
S11358C022E1002A80F22981DB689E4500F01C81D8
S11358D0596821F003014A1B0F2AF2DDD3E9028E35
S11358E05C1945F001055D6042F00105C8F80CE063
S11358F03046CEF80880C7E90444C4E902CC6560A8
S11359005A50019300F0D4FA019B03F1080463E7B1
S113591000240C232046336003B0BDE8F08F4FF41D
S1135920007340204FF03F0C73E77B688210012422
S113593094409C42B3D9BC68636823F00309A94529
S113594003D3A9EB05030F2B7BDC5E4BDFF888A1A7
S11359501A68DAF80030013305EB020800F04881D8
S113596008F5805808F10F0828F47F6828F00F081C
S11359704146304600F0E0FDB0F1FF3F834600F0C1
S1135980048104EB0900584500F2FD804E4A136877
S11359904344136000F04D81DAF8001001311BBF5D
S11359A0ABEB00001B18CAF800B013601BF0070330
S11359B000F03481C3F10801C3F580538B440833EC
S11359C0D844C8F30B08A3EB0808414630460192BB
S11359D000F0B2FD431C019A00F04681A0EB0B01DC
S11359E0414441F001011368C7F808B04344BC4284
S11359F0CBF80410136015D0B9F10F0F40F23081C9
S1135A006068A9F10C0121F0070100F0010004EB2A
S1135A10010C08434FF0050E0F296060CCE901EE3C
S1135A2000F23A81294A2A481168BC688B4201680D
S1135A3088BF136062688B4222F0030288BF036050
S1135A40A7E0621943F0010345F0010565603046A3
S1135A50BA60536000F02CFA0834204603B0BDE865
S1135A60F08F2344E1685A68A56842F00102E960B6
S1135A7030468D605A6000F01BFA0834204603B0AB
S1135A80BDE8F08FDC68A34208BF02303FF4D6AE15
S1135A9092E6142B71D9542B00F2AD802B0B03F139
S1135AA06F0003F16E0CC300B3E6234430465A681A
S1135AB042F001025A60083400F0FAF98CE600BFA3
S1135AC04C040420340A0420040A04202C0A042070
S1135AD0300A04205404042054080420611945F0B9
S1135AE0010E42F00105C4F804E03046C7E9041190
S1135AF0C1E902CC4D60E25000F0DAF908346BE6FB
S1135B00E80805F108034FE608F1010818F0030F4F
S1135B100EF1080E7FF4D0AE52E019441C464A68D8
S1135B20DB6854F8085F42F001024A603046EB60DB
S1135B309D6000F0BDF94FE65A0A042A35D9142AAB
S1135B406FD802F15C01C9005B3207EB010E795892
S1135B50AEF1080E8E4558D04A6822F003029A42EC
S1135B6002D989688E45F7D1D1F80CE07B68C4E985
S1135B70021ECEF80840CC608CE603F15C0003F111
S1135B805B0CC30045E6BC4272D0BC68626822F07C
S1135B9003029542A2EB050302D80F2B3FF751AF46
S1135BA0304600F085F9002416E69A0902F139011D
S1135BB0C9003832C9E7D9F80090994540F083808C
S1135BC010F0030FA9F1080300F1FF30F3D17B6853
S1135BD023EA04037B6064009C423FF6ACAE1CB92C
S1135BE0A9E6640008F104081C42FAD040465FE6C6
S1135BF008F11008BCE6B3F5AA7F26D8EB0B03F135
S1135C00780003F1770CC30003E67B6892104FF031
S1135C10010808FA02F213437B60A8E74FF48053AB
S1135C20CEE6542A29D81A0B02F16F01C9006E324C
S1135C308BE7C0F30B0100297FF4AEAE09EB080239
S1135C40B96842F001024A60ECE640F254529342D1
S1135C501CD8AB0C03F17D0003F17C0CC300D8E528
S1135C600123CBF804309BE701214FF00008BAE68A
S1135C70164A1368434413608EE6B2F5AA7F14D81B
S1135C80DA0B02F17801C90077325EE74FF47E73D4
S1135C907F204FF07E0CBCE504F1080130460192F0
S1135CA0FFF7C6FB019A1368BCE640F254518A42DE
S1135CB005D89A0C02F17D01C9007C3245E74FF406
S1135CC07E717E2241E77B6885E700BF040A0420D9
S1135CD001F0FF01102A2BDB10F0070F08D010F899
S1135CE0013B013A8B422DD010F0070F42B3F6D19D
S1135CF0F0B441EA012141EA014122F007047FF0B6
S1135D0000070023F0E80256083C85EA010586EA0C
S1135D10010685FA47F5A3FA87F586FA47F6A5FA48
